:020000040800F2
:1000000070480020E9020008011A000839160008AB
:10001000F5160008A70500089D1C00080000000058
:10002000000000000000000000000000290200089D
:100030004D0600080000000085020008DF1B0008D4
:100040000303000803030008030300080303000878
:100050000303000803030008030300080303000868
:100060000303000803030008030300080303000858
:100070000303000803030008030300080303000848
:100080000303000803030008030300080303000838
:10009000A9050008B50500080303000803030008CC
:1000A0000303000803030008030300080303000818
:1000B0000303000803030008030300080303000808
:1000C00003030008030300080303000803030008F8
:1000D00003030008030300080303000803030008E8
:1000E00003030008030300080303000803030008D8
:1000F00003030008030300080303000803030008C8
:1001000003030008030300080303000803030008B7
:1001100003030008030300080303000803030008A7
:100120000303000803030008030300080303000897
:100130000303000803030008030300080303000887
:100140000303000803030008030300080303000877
:100150000303000803030008030300080303000867
:100160000303000803030008030300080303000857
:100170000303000803030008030300080000000055
:10018000030300080303000800F002F800F03CF845
:100190000AA090E8000C82448344AAF10107DA45E2
:1001A00001D100F031F8AFF2090EBAE80F0013F0F8
:1001B000010F18BFFB1A43F0010318479C390000D8
:1001C000BC390000103A24BF78C878C1FAD8520769
:1001D00024BF30C830C144BF04680C6070470000C1
:1001E0000023002400250026103A28BF78C1FBD840
:1001F000520728BF30C148BF0B6070471FB503F0DE
:10020000E5FB1FBD10B510BD00F098F91146FFF7D2
:10021000F5FF02F0F1F900F0B6F903B4FFF7F2FFD1
:1002200003BC00F0B9F900002C4B19680868B0E86D
:10023000F04F80F30988BFF36F8F4FF0000080F319
:10024000118870470000000008480068006880F3CB
:1002500008884FF0000080F3148862B661B6BFF3DF
:100260004F8FBFF36F8F00DF00BF00BF08ED00E0CE
:10027000DFF80C00016841F470010160704700BFB5
:1002800088ED00E0EFF30980BFF36F8F134B1A681E
:100290001EF0100F08BF20ED108A20E9F04F10600B
:1002A00009B44FF0500080F31188BFF34F8FBFF3B4
:1002B0006F8F02F045FD4FF0000080F3118809BCFC
:1002C00019680868B0E8F04F1EF0100F08BFB0ECD6
:1002D000108A80F30988BFF36F8F70474C000020AD
:1002E000EFF3058070470000094880470948004740
:1002F000FEE7FEE7FEE7FEE7FEE7FEE7FEE7FEE7D6
:10030000FEE7FEE704480549054A064B7047000032
:100310008D1C0008890100087042002070480020F0
:10032000704400207044002053EA020C00F0698001
:100330002DE9F04B4FF00006002B1FBFB3FA83F5F9
:1003400003FA05F424FA05F65E4012BF1643B2FA2A
:1003500082F502FA05F4C5F120051EBF22FA05FC5C
:1003600044EA0C04203556EA044C4FEA144418BF02
:10037000641C4FF000084FF00009904271EB030C31
:1003800039D3002919BFB1FA81F701FA07F6B0FA9B
:1003900080F700FA07F6C7F120071EBF20FA07FC16
:1003A00046EA0C062037B6FBF4FCA7EB0507103F26
:1003B00007F01F0BCBF120060CFA0BFB2CFA06F60C
:1003C00044BFB3460026202FA4BF5E464FF0000B6B
:1003D0005BEA060C08BF4FF0010B19EB0B09ABFBF6
:1003E000027C48EB0608C01B06FB02CC0BFB03CCCF
:1003F00071EB0C01C1E70B46024641464846BDE899
:10040000F08B13B54FF000004FF00001AFF3008008
:10041000BDE81C40704710B54C1084EA530404D565
:100420004042C1F1000138BF491E1B4204D552426F
:10043000C3F1000338BF5B1EFFF776FF14F0804F57
:1004400004D04042C1F1000138BF491E14F0004FF2
:1004500004D05242C3F1000338BF5B1E10BD10B57B
:10046000203AC0F00B80B1E81850203AA0E81850AC
:10047000B1E81850A0E81850BFF4F5AF5FEA027C6D
:1004800024BFB1E81850A0E8185044BF18C918C0DC
:10049000BDE810405FEA827C24BF51F8043B40F87D
:1004A000043B08BF7047D20728BF31F8023B48BF62
:1004B00011F8012B28BF20F8023B48BF00F8012BA0
:1004C00070474FF0000200B5134694469646203917
:1004D00022BFA0E80C50A0E80C50B1F12001BFF4FD
:1004E000F7AF090728BFA0E80C5048BF0CC05DF863
:1004F00004EB890028BF40F8042B08BF704748BFB1
:1005000020F8022B11F0804F18BF00F8012B704724
:1005100070477047704710B500F008F8006810BDCC
:1005200010B5044600F002F8046010BD00487047A2
:100530000C420020004870470C4200207546FFF72F
:10054000F9FFAE4605006946534620F00700854690
:1005500018B020B5FFF7D6FEBDE820404FF00006EA
:100560004FF000074FF000084FF0000B21F007019B
:10057000AC46ACE8C009ACE8C009ACE8C009ACE8DE
:10058000C0098D46704710B50446AFF30080204681
:10059000BDE81040FFF741BE01491820ABBEFEE7A1
:1005A000260002007047FEE7014800F0CEB90000C7
:1005B000F4040020014800F0C8B90000F404002051
:1005C00000B58BB044F22000009044F2400001904E
:1005D00044F2600002904FF481400390002001211A
:1005E0000490CDE90501CDE907016946044800F012
:1005F000ABF8002801D072B6FEE70BB000BD0000DA
:10060000F40400202DED028B4FF47A760C4C9FED14
:100610000D8B00252068401C2060012002F02CFB7F
:100620002068B042F6D194ED020B53EC182B51EC3C
:10063000100B02F07DFD2560C4E90201EAE700002D
:10064000000000209A9999999999B93F704772B61C
:10065000FEE790F82020012A07D0022A05D0416A3F
:1006600041F48021416201207047006842690A43D9
:10067000426100207047F0B590F820500468A468EB
:10068000012D05D0022D03D0416A41F4802157E0AD
:1006900014F0406F01D1E5004FD5C4F3016401258A
:1006A000A5401D608D684FF4C0739DB1CE68354381
:1006B0004E6845EAC605066803EB0417F5514FF48A
:1006C000C275076805EB04150E697E51097D012985
:1006D00005D009E00E88CD6845EA4655EBE701688C
:1006E0004E5946F480764E511179D579567941EAC2
:1006F000056195792D0445EA062529434FF4C67610
:10070000056806EB0416A9511178D57841EA056110
:10071000957852782D0445EA022211434FF4C475AE
:10072000026805EB04155151006803EB04114258AF
:1007300042F0010242500020F0BD416A41F4001134
:1007400041620120F0BD000010B590F82020012A80
:1007500007D0022A05D0416A41F48021416201207C
:1007600010BD3B48D0F8002242F00102C0F8002240
:10077000D0F8002222F47C52C0F80022D0F80022E7
:100780004B6A42EA0322C0F800220A7D02F01F03EE
:1007900001229A40D0F81C329343C0F81C32CB6936
:1007A000B3B9D0F80C329343C0F80C328C894B6843
:1007B00064F31F434C6900EBC404C4F840320C8955
:1007C0000B6864F31F434C6900EBC404C4F8443263
:1007D000CB69012B16D1D0F80C321343C0F80C3280
:1007E0000C884B6864F31F434C6900EBC404C4F8E5
:1007F00040320C89CB6864F31F434C6900EBC4049E
:10080000C4F844328B69002BD0F804320ED0134365
:10081000C0F804320B69002BD0F8143208D013430F
:10082000C0F81432096A012904D008E09343EFE7C5
:100830009343F5E7D0F81C121143C0F81C12D0F80E
:10084000001221F00101C0F80012002010BD0000CC
:1008500000640040704770B590F82040012C05D02E
:10086000022C03D0416A41F4802128E0046809B3D6
:100870002469A40720D04FF4D874056804EB011450
:100880002D5915F00405956005682D591AD0ED080D
:10089000556005682C5904F00204D4604FF4DA74F2
:1008A000056804EB01142E5906F00F06082E0CD330
:1008B00008250DE0E468DCE7416A41F4001141627B
:1008C000012070BD6D0D1560E3E72D5905F00F0592
:1008D000156105682D59C5F30725956105682C59E3
:1008E000240C54614FF4DC72046802EB0112A4582A
:1008F0001C700468A458240A5C700468A458240C72
:100900009C700468A258120EDA704FF4DE7204680C
:1009100002EB0112A4581C710468A458240A5C71EB
:100920000468A458240C9C710468A258120EDA7151
:10093000006829B1016941F020010161002070BD0A
:10094000C16841F02001C160F8E72DE9F05F05467C
:10095000006800244669D0F804908768D0F80CB08D
:10096000D0F810A0D0F81880F10748D0F90714D0BB
:1009700001218160B80703D5284600F024FA0CE075
:10098000780702D54FF4006407E0380702D54FF42A
:10099000805402E0284600F015FAF80516D52968BB
:1009A0004FF480708860B80503D5284600F00DFA32
:1009B0000CE0780502D544F4005407E0380502D570
:1009C00044F4804402E0284600F0FEF9F80316D50E
:1009D00029684FF480308860B80303D5284600F0BA
:1009E000F6F90CE0780302D544F4004407E038033C
:1009F00002D544F4803402E0284600F0E7F93007DD
:100A000007D55FEACB6004D52968102044F4007450
:100A1000C86070074FF0080707D55FEA0B7004D570
:100A20002868C760284600F05FF9B00706D5286837
:100A3000C068800702D0284600F058F9700607D534
:100A40005FEACA6004D52968102044F48064086114
:100A5000B00607D55FEA0A7004D528680761284602
:100A600000F080F9F00606D528680069800702D0FA
:100A7000284600F078F9B00308D55FEAC96005D5CB
:100A8000296810204860284600F06EF9F00307D569
:100A90005FEA097004D528684760284600F098F995
:100AA000300446D55FEA497040D5F00504D55FEAC9
:100AB000C87001D044F00104B00504D55FEA887025
:100AC00001D544F00204700504D55FEA487001D5F1
:100AD00044F00404300529D518F0700F26D008F032
:100AE0007000402815D006DC102809D020280AD034
:100AF000302816D10AE050280ED0602811D10EE01F
:100B000044F008040DE044F010040AE044F020042E
:100B100007E044F0400404E044F0800401E044F4C1
:100B200080742868816921F070018161296804203E
:100B30004860002C05D0686A204368622846FFF7A9
:100B400089FEBDE8F09F70B5040003D094F8200042
:100B500010B104E0012070BD204600F081F820684B
:100B6000016841F00101016000F02CFA05460526FC
:100B700004E000F027FA401B0A2811D820684068DA
:100B8000C007F6D02068016821F00201016000F082
:100B900019FA05460BE000F015FA401B0A2806D9A1
:100BA000606A40F40030606284F82060D2E7206818
:100BB00040688007EFD4207E0128206801683DD07E
:100BC00021F080010160607E01282068016838D032
:100BD00021F040010160A07E01282068016833D027
:100BE00021F020010160E07E0128206801682ED0FC
:100BF00041F010010160207F01282068016829D0A0
:100C000021F008010160607F01282068016824D07C
:100C100021F004010160D4E902010843D4E904127F
:100C2000114308436168491E08432168C8610020D8
:100C30006062012084F82000002070BD41F0800136
:100C4000C0E741F04001C5E741F02001CAE721F0CB
:100C50001001CFE741F00801D4E741F00401D9E7E2
:100C600010B586B0044614216846FFF72AFC1B49DC
:100C7000206888422FD11A480021026842F0007291
:100C80000260006800F00070059015481038026896
:100C900042F0080202600068022200F0080005909D
:100CA0000320CDE90210CDE9000209200490694635
:100CB0000C4800F08FF800220521142000F0F4F910
:100CC000142000F0E3F900220521152000F0ECF9D2
:100CD000152000F0DBF906B010BD000000640040F4
:100CE00040380240000C02407047000070B51A4ABC
:100CF000016891422FD1194B194A0021FFF7ABFD32
:100D0000174D05F1200428682188884203D1134932
:100D1000204600F031FEB4F840102868884204D123
:100D20000F480E49603000F027FEB4F880102868A4
:100D3000884204D10A480949A03000F01DFEB4F8E9
:100D4000C0102868884206D1BDE8704004480349B5
:100D5000E03000F011BE70BD006400402C000020A7
:100D600080010020704770477047000070B504464E
:100D700090F82000012804D0606A40F400206062EE
:100D800018E0022084F820002068016821F00101A9
:100D9000016000F017F905460EE000BF00F012F9FF
:100DA000401B0A2808D9606A40F4003060620520C0
:100DB00084F82000012070BD20684068C007EDD194
:100DC000606270BD704770477047704770477047EA
:100DD000704700002DE9F84FDFF8BCA10022012583
:100DE00003264FF00F090AF1040BAAF1040E00BF0D
:100DF0000B6805FA02F42340A34270D10F7907F083
:100E00000307012F01D0022F16D187684FEA42084D
:100E100006FA08FC27EA0C07D1F80CC00CFA08FC0B
:100E20004CEA070CC0F808C04768A7430C79C4F324
:100E3000001494403C4344600C79E443A4070AD076
:100E4000C4684FEA420C06FA0CF7BC438F6807FAF5
:100E50000CF72743C7600C7904F00304022C12D16D
:100E6000D40800EB840CDCF820405707FF0E09FA89
:100E700007F824EA0804D1F8108008FA07F848EACD
:100E80000408CCF8208004684FEA420C06FA0CF7FC
:100E9000BC430F7907F0030707FA0CF727430760F5
:100EA0004C6814F4403F70D03C4C276847F48047AE
:100EB0002760246822F0030704F480440094384C2F
:100EC00007EB040CDCF8084897074FEA177809FA93
:100ED00008F7BC43334FB84202D1002724E054E066
:100EE000314FB84201D101271EE0304FB84201D145
:100EF000022719E02E4FB84201D1032714E02D4FED
:100F0000B84201D104270FE02B4FB84201D1052789
:100F10000AE02A4FB84201D1062705E0284FB8421F
:100F200001D1072700E0082707FA08F72743CCF884
:100F30000878DAF800405746D1F804C09C435FEACD
:100F4000CC2C00D51C433C60DBF800405F46D1F858
:100F500004C09C435FEA8C2C00D51C433C60DEF847
:100F600000407746D1F804C09C435FEA8C3C00D532
:100F70001C433C60084F083F3C68D1F804C09C43C8
:100F80005FEACC3C00D51C433C60521C102AFFF4A5
:100F90002FAFBDE8F88F0000083C01404438024004
:100FA00000300140000002400004024000080240FE
:100FB000000C0240001002400014024000180240E1
:100FC000001C024001488068704700003C0000207F
:100FD0000248816802781144816070473C0000201B
:100FE0000B4810B5016841F400710160016841F4DB
:100FF00080610160016841F480710160032000F0AC
:1010000073F80F2000F006F800F024F8002010BD5F
:10101000003C024070B50D4D04464FF47A712878BB
:10102000B1FBF0F00A490968B1FBF0F000F0F0FA0A
:1010300048B9102C07D200222146501E00F034F887
:1010400000206C6070BD012070BD00003C000020DD
:10105000480000200C4882B0016841F480410160E2
:10106000006800F4804000900748001F016841F0CC
:10107000805101600068002200F0805000900F2134
:10108000901E02B000F010B844380240002809DB7E
:1010900000F01F02012191404009800000F1E02092
:1010A000C0F8001170470000F0B40E4B1B680C46EE
:1010B000C3F30223C3F10705042D00D90425191D2C
:1010C000072901D2002300E0DB1E012606FA05F104
:1010D000491E214099409E40761E16403143F0BC87
:1010E00000F0F5BD0CED00E0064900F007020868CD
:1010F0004FF6FF03184040EA0220034A10430860FD
:10110000704700000CED00E00000FA052DE9F04703
:101110000E46050065D0DFF81481D8F80000F7B25C
:1011200000F00700B04207D288F80070D8F800003D
:1011300000F00700B04254D128683D4C810712D519
:10114000400703D5206840F4E0502060287800076D
:1011500003D5206840F4604020602068A96820F032
:10116000F000084320602878C0072DD03049686817
:101170000839012812D0022813D0032811D0096899
:10118000890700292DDA216821F00301014321603C
:10119000FFF718FF814641F2883A0EE0096889039B
:1011A000EFE709688901ECE7FFF70CFFA0EB090105
:1011B000514502D90320BDE8F0872068696800F036
:1011C0000C00B0EB810FEFD1D8F80010404601F0D1
:1011D0000701B14207D90770006800F00700B0426C
:1011E00001D00120E7E72878400705D52068E968A5
:1011F00020F4E050084320602878000706D52068D6
:10120000296920F4604040EAC100206000F018F82D
:101210002168084AC1F30311515CC84006490860BF
:1012200006480068FFF7F6FE0020C4E7003C0240D5
:1012300008380240103A0008480000204000002012
:10124000154810B5006810F00C02144813D014496A
:10125000042A0FD0082A0ED10F4C241F22682368BD
:1012600002F03F025B0207D52068C0F38810A0FBA4
:10127000010106E0084610BD2168C1F38811A1FBF9
:1012800000010023FFF750F82168C1F30141491C18
:101290004900B0FBF1F010BD083802400024F40012
:1012A00040787D012DE9F84F04006ED02078DFF8FA
:1012B0004C93C007A9F104054AD009F10400016864
:1012C000C1F38101012908D00068C0F38100022820
:1012D0000AD1D9F80000400206D52868800337D526
:1012E00060680028E1D033E06068B0F5803F10D03E
:1012F000B0F5A02F286810D020F48030286028682E
:1013000020F4802028606068A8B1FFF75BFE0646E5
:101310000DE0286840F48030F4E740F48020286035
:10132000F7E700BFFFF74EFE801B642873D82868DC
:101330008003F7D50CE0FFF745FE064605E000BF49
:10134000FFF740FE801B6428F0D828688003F7D49C
:101350002078DFF8AC8280074FF0000A3ED5A7481E
:10136000001D016811F00C0F08D00068C0F3810067
:1013700002280BD1D9F80000400207D42868800762
:1013800016D5E068012800D112E033E1E068B8B179
:101390000120C8F80000FFF715FE064605E000BF73
:1013A000FFF710FE801B0228C0D828688007F7D5F9
:1013B0002868216920F0F80040EAC10028600DE0AB
:1013C000C8F800A0FFF7FEFD064604E0FFF7FAFDAF
:1013D000801B02281FD828688007F7D420780007D0
:1013E00022D5864F87486169703771B1012101604C
:1013F000FFF7E8FD064604E0FFF7E4FD801B022846
:1014000009D838688007F7D50EE0C0F800A0FFF7CC
:10141000D9FD064605E082E0FFF7D4FD801B0228D7
:101420007DD838688007F7D42078400768D5DFF882
:10143000CCB100270BF13C0BDBF80000C0000BD453
:10144000DBF8001041F08051CBF80010DBF8000011
:10145000012700F0805000906B4E3068C00510D41A
:10146000306840F480703060FFF7ACFD009005E01C
:10147000FFF7A8FD0099401A022850D83068C0052F
:10148000F6D55E4EA0686C3601280FD0052830686E
:1014900010D020F001003060306820F0040030608F
:1014A000A068B8B1FFF78EFD00900FE0306840F003
:1014B0000100F4E740F004003060F7E7FFF782FD39
:1014C0000099411A41F28830814266D8306880071D
:1014D000F4D50EE0FFF776FD009007E0FFF772FD10
:1014E0000099411A41F28830814256D8306880070D
:1014F000F4D42FB1DBF8001021F08051CBF80010AC
:10150000A069C8B33D49091D0968C1F381010229D9
:101510004AD00228504607D0C8F8600000E03CE0FE
:10152000FFF750FD04463BE04746C8F86000FFF770
:1015300049FD064605E000BFFFF744FD801B022879
:101540002BD828688001F7D4D4E907010843A16AA1
:101550002E4A490802EB0141626A41EA82110843BE
:1015600094F82C1040EA0161C9F800100120386697
:10157000FFF728FD044606E03EE000BFFFF722FD2E
:10158000001B022809D828688001F7D534E000BF85
:10159000FFF718FD001B022802D90320BDE8F88FD1
:1015A00028688001F4D427E00128F7D0D9F800009A
:1015B000E26900F4800191421CD1226A00F03F01EF
:1015C000914217D147F6C071626A0140B1EB821FA8
:1015D00010D1A26A4FF0FF3300F4403103EB520206
:1015E000B1EB024F06D194F82C1000F07060B0EB14
:1015F000016F01D00120D1E70020CFE7043802407D
:1016000000004742800E4742007000400000FFFF8C
:1016100010B5401EB0F1807F01D3012010BD4FF006
:10162000E02460610F21601700F051FB0020A061F1
:1016300007202061002010BDFEE700000E4810B515
:101640000C4901600421416000214FF4E0228160D7
:10165000C0E903124161017641768176C176017756
:101660004177FFF770FA002803D0BDE81040FEF77D
:10167000EEBF10BD00640040F404002010B58EB031
:101680001C220B496846FEF7EAFE0021684600F07E
:10169000D6FF084C06491C2220601C3107A8FEF723
:1016A000DEFE002107A800F0CAFF60600EB010BD8A
:1016B000D8390008340000200D4808B5016841F011
:1016C00001010160016801F001010091016841F030
:1016D00008010160016801F008010091016841F012
:1016E00080010160006800F08000009008BD0000EB
:1016F00030380240FEE700002DED0A8B88B04FF431
:1017000000704FF0000AB7EE003A0090CDF808A044
:10171000CDF80CA00820DFED808AF0EE682A9FED5E
:101720007F8AB0EE482ADFED7E1AB7EE001AF7EE98
:10173000000A9FED7C0A049001217B4800F038FAF2
:10174000B7EE003AF0EE682AB0EE482A9FED779A9D
:101750007548B7EE001AF0EE491AF6EE000AB2EE3E
:101760000E0A0121443000F023FA6F48B7EE003A28
:10177000F0EE682AB0EE482AF0EE491AB7EE001AE9
:10178000F6EE000AB2EE0E0A0121883000F010FADF
:10179000674800F0E5F866484030044600F0E0F89D
:1017A00063488030054600F0DBF86148C0300646EB
:1017B00000F0D6F840F201215D4800F0DBF840F27D
:1017C0000221204600F0D6F840F20321284600F01E
:1017D000D1F84FF40171304600F0CCF84FF47A7034
:1017E00001F04AFA504E9FED539B544F9FED54AB7E
:1017F0009FED55BBDFF858B19FED56CB4C4D06F130
:101800008809ABF114044FF0130800BF97ED000BEB
:1018100053EC192B51EC100B01F032FD41EC100B85
:1018200000F066FAB0EE408AF0EE608A606801F07F
:10183000AEFE53EC182B01F0D5FE53EC1A2B01F041
:10184000D1FE53EC1B2B01F0CDFE01F071FE00B276
:101850002080E060F063B5F9061091FBF8F000EE2F
:10186000100A3148B8EEC00A86ED100A00F0C9F837
:10187000308D0023020A8BF800208BF80100D5E997
:1018800016014FF40052FEF7C6FD97ED000B08EE6F
:10189000100A53EC1C2B51EC100B01F0A3FE01F0CD
:1018A00047FE642190FBF1F201FB120060B9A168D0
:1018B0004FF4B47001FB00F2B8EEC80A491CC9F835
:1018C0003C20A16089ED100AA0680A2803D1C4F861
:1018D0000CA0C4F808A01448883000F092F8124810
:1018E000D9F828104430C163B5F9462092FBF8F1CD
:1018F00000EE101AB8EEC00A80ED100A00F081F870
:1019000006AB134A69461548FEF7B5FE2061642010
:1019100001F0B2F97AE700000000964300007A4433
:1019200000401C4500004842B400002000803B45B8
:10193000A001002000000000000008400800002076
:101940000000000000003E400000000000001440C5
:10195000240000200000000000002440F4040020C7
:10196000002141800182C0E9061180F82010416207
:10197000418470470180704700B503468088188213
:10198000184600F005F818465DF804EB00F00CB8B6
:101990000A8852BA82804A8852BAC2808A8852BA69
:1019A000028189798172704710B590F82010B0F9E2
:1019B000042019B90282012180F82010B0F91030FA
:1019C000D11A9A4202DA4FF4005200E00B4A0A445C
:1019D000002A01DD134600E05342002901DD0C46D8
:1019E00000E04C42A34200DA1146D0E90634CA179F
:1019F000C9186241C0E9061210BD000000E0FFFFF7
:101A0000FEE730B5446984610369436190ED0F0AD4
:101A1000D0ED100AB8EEC00A30EE600ABDEEC00A82
:101A200010EE101A0161002901DD0A4600E04A4269
:101A300090F83850AA427EDD0278022A02D0012AAC
:101A400055D0A9E0CA1A00EE102AD0ED010A0029EB
:101A5000B8EEC00A60EE200AC0ED070A01DD0A46B2
:101A600000E04A42456BAA4229DA00EE101A90EDD6
:101A7000021AB8EEC00A21EE000A80ED080A026BD5
:101A800001EE102AB8EEC11AB4EEC10AF1EE10FA56
:101A900003DD00EE102AB8EEC00A524201EE102A11
:101AA00080ED080AB8EEC11AB4EEC10AF1EE10FAE0
:101AB00003D200EE102AB8EEC00A80ED080AA1EBAE
:101AC0004301214400EE101A90ED031AB8EEC00A4B
:101AD00020EE010A80ED090A90ED081A70EE810AE5
:101AE00070EE800A90ED0A0AB8EEC00A4EE000EEF1
:101AF000101AD0ED010A0029B8EEC00A60EE800A83
:101B0000C0ED070A01DD0A4600E04A42446BA242EA
:101B10002DDA01EE101A90ED080AD0ED021AB8EE97
:101B2000C11A01EE810A80ED080A026B01EE102A4B
:101B3000B8EEC11A00E03AE0B4EEC10AF1EE10FAD4
:101B400003DD00EE102AB8EEC00A524201EE102A60
:101B500080ED080AB8EEC11AB4EEC10AF1EE10FA2F
:101B600003D200EE102AB8EEC00A80ED080AC91AA6
:101B700000EE101A90ED031AB8EEC00A20EE010A2A
:101B800080ED090A90ED081A70EE810A30EE800AA5
:101B9000BDEEC00A80ED0A0AD0E90A12914200DDCA
:101BA000114652428162914200DA1146816230BD93
:101BB00000F8041BA0EC030ABDEEE10A80ED070A61
:101BC000BDEEC20A80ED080ABDEEE20A80ED090A08
:101BD000BCEEC30A10EE101A80F82810704710B53A
:101BE000FFF7F6F901F0C2F9012803D0BDE8104073
:101BF00001F04EB910BD000030B593B030216846F9
:101C0000FEF75FFC14210CA8FEF75BFC1D480025C5
:101C1000016841F080510160006800F0805011902F
:101C20001948016841F4804101600068022400F411
:101C3000804011900120039010200490009406949D
:101C40000820CDE90750A020CDE9090404200B901D
:101C50006846FFF727FB08B172B6FEE70CA90F2014
:101C600081E831004FF4A0500F904FF48050109055
:101C700005210CA8FFF74AFA002801D072B6FEE74A
:101C800013B030BD40380240007000400248016887
:101C900041F470010160704788ED00E0FEE703B495
:101CA00001984100009850EAC12018BF04204A0D55
:101CB00018BF40F0010040F2FF72B2EB515F08BF65
:101CC00040F00200012808BF052002B07047090754
:101CD000090E002804DB00F1E02080F800147047B2
:101CE00000F00F0000F1E02080F8141D70470000A4
:101CF00010B52F499FED2C1B2DED020B84B00598DC
:101D000020F000408842DCBF00209DED040B32DD56
:101D10002849884209D1049840B94FF00100FEF7E4
:101D2000FFFB00F03DFC06B010BD05DB9DED040B94
:101D300000F02AFC06B010BD68469DED040B00F0D3
:101D40003BF810F0030011D0012818D09DED021BC4
:101D50009DED000B02281AD000F04AFA51EC100B4E
:101D600001F0DAF906B041EC100B10BD9DED021B3D
:101D70009DED000B012000F06FFB06B010BD9DED46
:101D8000021B9DED000B00F033FA06B010BD0120E0
:101D900000F062FB51EC100B01F0BEF906B041EC13
:101DA000100B10BD0000000000000000000000004B
:101DB000FB21E93F0000F07F2DE9F14F04462DEDB6
:101DC000020B2DED088B8AB09FEDE70B80ED020B27
:101DD000139EE74826F0004585420ADC9DED120B74
:101DE000002084ED000B0AB0BDEC088B03B0BDE809
:101DF000F08FE0489FEDE0AB9FEDE1BBA84247DDEF
:101E0000E14F9FEDE39B9FEDE48B9DED120B53ECB7
:101E10001A2B51EC100B002E1CDD01F0EDFC41ECF7
:101E2000100BBD4208D053EC1B2B51EC100B01F0F2
:101E3000E3FCC4E900010BE053EC192B51EC100B4F
:101E400001F0DAFC53EC182B01F0D6FCC4E90001D8
:101E50000120C8E701F06CF941EC100BBD4208D03D
:101E600053EC1B2B51EC100B01F062F9C4E900019B
:101E70000BE053EC192B51EC100B01F059F953EC1A
:101E8000182B01F055F9C4E900014FF0FF30AAE723
:101E9000C348A84279DB9DED120B51EC100B00F00A
:101EA0009FFB41EC180B9FEDC00B53EC102B01F086
:101EB00099FB9FEDBF1B53EC112B01F039F901F099
:101EC00037FB074601F063FB41EC190B53EC1A2B6F
:101ED00001F088FB53EC182B01F082FC41EC180B4D
:101EE00053EC1B2B51EC190B01F07CFBDFF8C8A263
:101EF00041EC100B4FEA15580125FA4453EC102B16
:101F000051EC180B01F078FC032DC4E900013DD021
:101F1000C1F30A5005EB4511A8EB000011398142CD
:101F200034DA0AEB051BB0EE48AA9BED000BF0EE8D
:101F300068AA53EC102B51EC190B01F053FB41EC48
:101F40001B0B51EC1A0B53EC1B2B01F055FC41EC15
:101F5000180B51EC1A0B53EC182B01F04DFC53EC01
:101F60001B2B01F049FC9BED020B41EC1A0B53ECCF
:101F7000102B51EC190B01F035FB53EC1A2B01F02F
:101F80003BFC41EC100B6D1CB8E70EE0002EA8BF27
:101F90003846BFF628AF94ED000B51EC100B01F062
:101FA000BBF8C4E9000178421DE7C6F3130040F412
:101FB000801EC6F30A50A0F2F530471100F01F054D
:101FC000C5F12000DDF848B0089000200690079089
:101FD0000520EC467949002D07EB0002794408BF43
:101FE00051F8221009D051F8223001EB8201AB40A8
:101FF0004A68089922FA01F11943A1FB0E26A1FBB8
:102000000B131A449A4234BF0123002303EB060842
:102010000CEB8003D3E901A60E448E4234BF0121AC
:10202000002192448A4411B1924502D903E09245BD
:1020300001D2012100E00021C3E901A641444CF88E
:102040002010011EA0F10100C4DC029800F1005034
:10205000850F0298DDE903678000DDF8148001F048
:1020600096FA41EC1A0B304601F0A8FA9FED541B8A
:1020700053EC112B01F0B6FA41EC1B0B384601F082
:102080009DFA9FED511B53EC112B01F0ABFA41EC83
:10209000180B404601F092FA9FED4D1B53EC112BAB
:1020A00001F0A0FA41EC190B51EC180B53EC192B71
:1020B00001F03EF853EC1B2B01F03AF853EC1A2BCD
:1020C00001F036F8CDE90801002008909DED080BDD
:1020D00053EC1A2B51EC100B01F08EFB53EC1B2B25
:1020E00001F08AFB53EC182B01F086FB53EC192B03
:1020F00001F076FB9FED381B53EC112B01F072FAC7
:102100009FED370B41EC180B53EC102B9DED080B9A
:1021100051EC100B01F066FA53EC182B01F008F8A3
:102120009FED310B41EC180B53EC102B9DED080B80
:1021300051EC100B01F056FA53EC182B00F0F8FF9D
:1021400041EC100B139810F0004F06D06D4251EC8B
:10215000100B00F0E1FF41EC100B284684ED000B62
:1021600041E6000000000000000000000000000048
:10217000FB21E93F7CD9024000004054FB21F93F9C
:102180003163621A61B4D03DFB21F93F00000000C9
:102190000000601A61B4D03D7370032E8A19A33B0E
:1021A000FB2139410000000083C8C96D305FE43F66
:1021B000000000000000E03F521B0000A01A0000D9
:1021C000000000000000103E000000000000103C75
:1021D000000000000000103A182D4454FB21F93D86
:1021E0003326A611460B113C00000054FB21F93D9B
:1021F00010B52DED040B2DED088B82B0B0EE419A99
:10220000F0EE619A0B9820F000449FED4BABB4F1D7
:10221000795F11DA9DED0A0B51EC100B01F088F992
:10222000002801BFB0EE4A0AF0EE6A0A02B0BDEC27
:10223000088B04BF04B010BD9DED0A0B53EC102BAE
:1022400051EC100B01F0CEF941EC180B3C48062183
:10225000B0EE480AF0EE680A784400F081F853ECDA
:10226000182B51EC100B01F0BDF99DED0A0B41EC60
:102270001B0B53EC192B51EC100B01F0B3F941EC93
:10228000190B53EC1B2B51EC180B01F0ABF953EC71
:10229000192B01F0B1FA9FED2C0B41EC190B53EC0B
:1022A000102B51EC180B01F09DF941EC100B284854
:1022B000844210DA53EC192B51EC100B01F09CFA0C
:1022C00053EC1A2B01F08CFA41EC100B02B0BDEC70
:1022D000088B04B010BD1F48A042BCBF9FED1E1B61
:1022E0008DED001B06DBA4F500100190002000908E
:1022F0009DED001B51EC100B53EC112B01F07CFAFF
:102300009DED000B41EC180B53EC102B51EC1A0B0C
:1023100001F072FA41EC1A0B53EC192B51EC180B2B
:1023200001F06AFA53EC1A2B01F05AFA41EC100B47
:10233000CCE7000000000000000000000000F03FBB
:10234000C417000000000000000000000000E03F93
:102350003333D33F0000E93F000000000000D23FCC
:1023600070B504462DED028B4D1E00EBC500B0EE9E
:10237000408AF0EE608A90ED000B35F0060017D031
:1023800053EC182B51EC100B01F02CF941EC100B15
:102390006D1E04EBC50090ED001B51EC100B53ECCF
:1023A000112B00F0C5FE41EC100B35F00600E7D113
:1023B000022D36D0042D1CD0062D1CBFBDEC028B87
:1023C00070BD53EC182B51EC100B01F00BF994ED90
:1023D0000A1B53EC112B00F0ABFE53EC182B01F051
:1023E00001F994ED081B53EC112B00F0A1FE41EC18
:1023F000100B53EC182B51EC100B01F0F3F894ED8B
:10240000061B53EC112B00F093FE53EC182B01F03C
:10241000E9F894ED040B53EC102B00F089FE41EC2D
:10242000100B53EC182B51EC100B01F0DBF894ED72
:10243000021B53EC112B00F07BFE53EC182B01F028
:10244000D1F894ED001B53EC112B00F071FEBDECA4
:10245000028B41EC100B70BD31B504462DED040B21
:102460002DED0A8BB0EE41BAF0EE61BA0B989DEDFE
:102470000A0B20F00040B0F1795F0DDA51EC100B3F
:10248000FFF70DFC042808BF00F09AF89DED0A0B39
:10249000BDEC0A8B05B030BD53EC102B51EC100B8A
:1024A00001F0A0F841EC180B9DED0A0B53EC182B32
:1024B00051EC100B01F096F841EC190B2C48B0EEE2
:1024C000480AF0EE680A05217844FFF749FF9FEDBE
:1024D0002ACBB0EE40AAF0EE60AA9CB353EC1C2BC2
:1024E00051EC190B01F07EF841EC1C0B53EC1A2B4C
:1024F00051EC190B01F076F89FED210B41EC190B13
:1025000053EC102B51EC1B0B01F06CF853EC192B16
:1025100001F072F953EC182B01F064F853EC1B2B0B
:1025200001F06AF953EC1C2B01F066F99DED0A1BD2
:1025300053EC112B01F054F9BDEC0A8B05B041ECC2
:10254000100B30BDFFE753EC1A2B51EC180B01F0C8
:1025500049F853EC1C2B00F0EBFD53EC192B01F068
:1025600041F89DED0A1B53EC112B00F0E1FDE3E770
:102570004C16000000000000495555555555C5BF83
:10258000000000000000E03F10B553EC102B51ECB0
:10259000100B00F0CDFD41EC100B10BD0000000051
:1025A0009FED050B10B553EC102B51EC100B00F008
:1025B00067FE41EC100B10BD0000000000000000A1
:1025C0009FED050B10B553EC102B51EC100B01F0E7
:1025D00009F841EC100B10BD0000000000000010D5
:1025E00082B0CDE9000121F0004001909DED000B8B
:1025F00002B051EC100B7047FEF7F2FCFFF7FCFA4B
:10260000FFF75AF8FFF71AF8FDF7DAFF022105483D
:10261000FEF71FF80348FEF7A9FBFFF72FF800F0BD
:1026200009F8FEE7F404002001460020842900D0C8
:10263000C81C704710B500F045FB002010BD7FB5E9
:102640000D4604464169B0F9080081B1A16971B134
:10265000FFF7EAFFD4E905128DE80700D4E900107E
:102660002B46226900F057FC039004B070BDFFF7C1
:10267000DBFF03A9CDE90001208A2B4682B2D4E911
:10268000001000F01BFC012801D00020EDE70398AA
:10269000EBE700002DE9F041184C0F460546E668CF
:1026A0002068001D00F020FA38B9206890F82C103E
:1026B00001208840216981432161681C07D137B11D
:1026C0002168BDE8F0410E48091D00F051BA2068AC
:1026D0003544B5424560216805D2A06BBDE8F041A4
:1026E000091D00F02DBA606B091D00F029FAA06ADF
:1026F000854200D2A562BDE8F08100004C000020B8
:10270000F80500202DE9F041054600F03DFA2E4C79
:10271000A068401CA06020682C4F10B1606940B3D5
:102720002DE02560A068012829D1002606EB86004F
:1027300007EB800000F0F6F9761C072EF6D323484D
:102740008C3000F0EFF92148A03000F0EBF91F4881
:10275000B43000F0E7F91D48C83000F0E3F91B4839
:10276000DC3000F0DFF919488C3060631430A0636E
:1027700005E02068E96AC06A884200D82560606A7E
:10278000401C6062E96A0120226988401043206190
:1027900001EB810007EB8000291D00F0E9F900F052
:1027A00013FA606900280CD02068E96AC06A884280
:1027B00007D207494FF080500860BFF34F8FBFF337
:1027C0006F8FBDE8F08100004C0000201C05002048
:1027D00004ED00E010B5044690F8510058B101280E
:1027E0000CD002280FD0502080F31188BFF34F8FF8
:1027F000BFF36F8FFEE7206B00F0FAF92046BDE8CB
:10280000104000F0F5B910BD10484FF47051420768
:1028100006D0C01D0D4920F00700411AC1F57051C6
:102820000B4A00230144C2E900030839183A21F099
:10283000070111604B600B600B1AC0E90013936035
:102840004FF0004053605061704700000C060020BC
:10285000A0000020144E154CA6F1C8074FF0805878
:10286000DFF84C9012E000BF00F08EF9F068C56808
:10287000281D00F039F9A068401EA0606068401E65
:10288000606000F0A1F92846FFF7A4FF6068002807
:10289000EAD138680128F9D9C9F80080BFF34F8F11
:1028A000BFF36F8FF2E70000E40500204C0000202A
:1028B00004ED00E02DE9F0479A46DDE90984814600
:1028C0006FF00303206B03EB82021044089E20F09C
:1028D0000707780707D0502080F31188BFF34F8F88
:1028E000BFF36F8FFEE7002561B1002023180A5C5B
:1028F00083F834200A5C12B1401C1028F6D384F807
:10290000435001E084F83450072E00D30626E662D7
:10291000C4E91165201D00F010F904F1180000F061
:102920000CF92461C6F107006462A061E56484F8D3
:10293000505052464946384600F0C0F82060B8F181
:10294000000F01D0C8F80040BDE8F08730B511494C
:1029500000E011460A688242FBD34B685C1884424F
:1029600003D1406818444860084643681C189442E4
:1029700009D1084C183C2468A24209D052681A4474
:1029800042600A6812680260814200D0086030BD6F
:102990000460F9E7A00000200648416B096829B1EE
:1029A000416BC968C9684968816270474FF0FF315F
:1029B000FAE700004C00002008484068401C4FF037
:1029C000500080F3118804D0BFF34F8FBFF36F8F97
:1029D000FEE7BFF34F8FBFF36F8FFEE7A800002025
:1029E0002DE9F0410546002700F0A2F9324E30688B
:1029F00008B9FFF709FF706905424ED1C5B3083524
:102A000068070ED005F00700C0F10800054468070C
:102A100007D0502080F31188BFF34F8FBFF36F8F23
:102A2000FEE72DB37068854237D823481830014639
:102A30000C6801E020460C466168A94202D2216878
:102A40000029F7D131688C4227D0076821680160DE
:102A500060680837411B10290FD96019420708D058
:102A6000502080F31188BFF34F8FBFF36F8FFEE7C5
:102A700013E041606560FFF769FF61687068401AA4
:102A80007060B268904200D2B0607069014300206B
:102A9000C4E90001F068401CF06000F0DBFA780740
:102AA00007D0502080F31188BFF34F8FBFF36F8F93
:102AB000FEE73846BDE8F0818800002010B5031F0E
:102AC0004FF080741C601B1F21F001011960191F59
:102AD000044B0B6014390A60091F6FF0020244387E
:102AE0000A6010BDB9290008D0E9013201699A6075
:102AF000D0E901235A604A68824201D182684A6063
:102B0000002202610868401E0860086870470000E3
:102B1000034B036003F1540008608020106070478D
:102B2000A002002000F108014FF0FF32C0E90112BD
:102B3000C16001610021016070470021016170479F
:102B400030B50B685A1C02D000F1080202E002699D
:102B500004E02246546825689D42FAD953684B60C8
:102B600099608A60516008610168491C016030BD4C
:102B700042684A6093688B6093685960916008610D
:102B80000168491C01607047502080F31188BFF331
:102B90004F8FBFF36F8F0A494868401C4860012877
:102BA0000CD10848006810F0FF0F07D0502080F3C8
:102BB0001188BFF34F8FBFF36F8FFEE770470000A0
:102BC000A800002004ED00E00849486828B1401E34
:102BD000486001D180F311887047502080F311883C
:102BE000BFF34F8FBFF36F8FFEE70000A8000020F8
:102BF00070B500282AD0164DA0F1080460686969F4
:102C0000084207D1502080F31188BFF34F8FBFF3E4
:102C10006F8FFEE722683AB1502080F31188BFF32E
:102C20004F8FBFF36F8FFEE78843606000F080F83E
:102C300060686968084468602046FFF787FE286975
:102C4000401C2861BDE8704000F004BA70BD00006F
:102C5000880000204FF0E0200021016181610549DA
:102C60004FF47A720968B1FBF2F1491E4161072104
:102C7000016170474800002010B5020014D00F48D1
:102C8000006B38B1502080F31188BFF34F8FBFF332
:102C90006F8FFEE700F04CF800211046FFF7FAFCBA
:102CA00000F0D8F9002807D105494FF0805008609E
:102CB000BFF34F8FBFF36F8F10BD00004C0000209B
:102CC00004ED00E010B586B00024039405AA04A921
:102CD00003A80494FFF71CFFDDE903010094CDE98C
:102CE000011000230EA11048059A00F014F90F49B5
:102CF0000028C86211D0502080F31188BFF34F8F95
:102D0000BFF36F8F4FF0FF30886201204861CC60C5
:102D100006B0BDE8104000F041B806B010BD00009C
:102D200049444C4500000000552800084C00002094
:102D30000248016B491C0163704700004C000020F1
:102D40001448016B11B10121C16170470021C161BB
:102D50000169B1FA81F1C1F11F0101EB81020E4954
:102D600051F822306BB101EB820101F108034A688E
:102D700052684A609A4201D152684A60D168016043
:102D80007047502080F31188BFF34F8FBFF36F8FD0
:102D9000FEE700004C0000201C0500201CB5374851
:102DA0000168374A914207D1502080F31188BFF360
:102DB0004F8FBFF36F8FFEE700683149491E88428D
:102DC00007D1502080F31188BFF34F8FBFF36F8F6F
:102DD000FEE72C4908780190FF20087008788DF8EC
:102DE00000009DF800009DF8002000F0F0009042E7
:102DF00007D0502080F31188BFF34F8FBFF36F8F40
:102E0000FEE79DF80000204C00F0500020700720E5
:102E1000A06005E09DF8002052008DF80020401EC3
:102E20009DF800201206F5D4A060032807D050209A
:102E300080F31188BFF34F8FBFF36F8FFEE74FF41E
:102E40004070A060019808700C482030016841F47F
:102E500070010160016841F070410160FFF7FAFE06
:102E600000206060FDF704FA0848016841F0404125
:102E70000160FDF7E9F900201CBD000000ED00E055
:102E800071C20F4100E400E0A800002034EF00E030
:102E900010B5502080F31188BFF34F8FBFF36F8FB1
:102EA00000F072F818B104494FF08050086000201B
:102EB00080F3118810BD000004ED00E02DE9FF5FF4
:102EC0008346DDE90E87994616468A469000FFF74D
:102ED00087FD05001CD05420FFF782FD040014D0AC
:102EE0000020256384F85100CDE90240CDE9008738
:102EF0004B46324651465846FFF7DCFC2046FFF76A
:102F000001FC012004B0BDE8F09F2846FFF770FEE9
:102F10004FF0FF30F6E7F0B585B0DDE90B640A9DB0
:102F2000A6B1DCB1542700972663022684F85160CD
:102F3000002604AFCDE90246CDE90057FFF7BAFC01
:102F40002046FFF7DFFB049805B0F0BD502080F36A
:102F50001188BFF34F8FBFF36F8FFEE7502080F3D0
:102F60001188BFF34F8FBFF36F8FFEE705484169AC
:102F700019B1006B18B10020704701207047022082
:102F8000704700004C0000202DE9F0412F4C002636
:102F9000206B28B1A069401CA0613046BDE8F081DB
:102FA000E5686D1CE56013D1606B006838B1502096
:102FB00080F31188BFF34F8FBFF36F8FFEE7606B15
:102FC000A16B6163A063206A401C2062FFF7E4FCF0
:102FD000A06ADFF87C80854209D3606B0068A0B1ED
:102FE000606BC068C7687868854211D2A0622068AB
:102FF000C06A00EB800158F82100012800D90126A1
:10300000E0690028C9D00126C7E74FF0FF30EDE79F
:10301000381DFFF769FDB86A18B107F11800FFF70E
:1030200063FDF96A0120226988401043206101EBA9
:10303000810108EB8100391DFFF79AFDF86A2168CC
:10304000C96A8842C9D30126C7E700004C000020A6
:103050001C0500202DE9F0472C4D00242746286B45
:1030600038B1FFF791FD286B401E2863286B40B1F3
:1030700046E0502080F31188BFF34F8FBFF36F8F6E
:10308000FEE7A968224E0120D1B3A6F1B40980461B
:103090003068E8B1F068C46804F11800FFF724FD57
:1030A000201DFFF721FDE06A2A6908FA00F11143AB
:1030B000296100EB800109EB8100211DFFF758FD1C
:1030C000E06A2968C96A8842E2D3C5F81C80DFE754
:1030D0000CB1FFF761FCAC6944B14646FFF754FF01
:1030E00000B1EE61641EF9D10020A861E86938B131
:1030F0000849012738070860BFF34F8FBFF36F8F70
:10310000FFF762FD3846BDE8F08700004C00002064
:10311000D005002004ED00E081F00041704780F010
:103120000040704721F00041704720F00040704798
:1031300010B591EA030F48BF83F0004300F16483A8
:10314000841A71EB030C05D2121943EB0C03001B1C
:1031500061EB0C01DFF824E14FEA1154A4EB135C9E
:103160001EEA430F18BF9EEA445F73D023EA0E03A2
:10317000DCF1200E21EA045143F4801332D322FA09
:103180000CFE10EB0E0023FA0CFE41EB0E01CCF10D
:10319000200E03FA0EFE10EB0E0051F10001B1F506
:1031A000801FCCF1200E32D201EB045112FA0EF244
:1031B000BDE8104058BF7047401C38BF5FEA42026C
:1031C00018BF7047002814BF20F0010041F1000132
:1031D0004FEA410313F5001F38BF7047A1F1C0410A
:1031E00000F0F8BA012A43EB0302ACF1200CDCF149
:1031F0001F0E32BF4FF0000E23FA0CF310EB03004A
:1032000041EB0451B4EB115FD0D0A1EB045101F5B7
:10321000801149085FEA300001EB04510ED350F1F0
:10322000000038BF12FA0EFE08D1BDE81040C9E711
:10323000401C38BF5FEA4202CAD1C3E7BDE8104074
:103240004FEA410313F5001F38BF7047A1F1C04199
:1032500000F0C0BA9EEA445F08D011EA5E0FBDE8F4
:10326000104004BF01F0004100207047BDE810404D
:1032700070B500F061FA00BF64FBBE3E0000E0FFE5
:103280002DE9C04130B4DFF8A0C23CEA111418BFE8
:103290003CEA131400F0EC8081EA03051CEA1114E7
:1032A00044EAD57418BF1CEA131500F0C780A4EBDC
:1032B00005044FF0004545EAC12145EAC32341EA30
:1032C000505143EA525304F17F74994204F500349B
:1032D0004FEAC0204FEAC22208BF904200F09C8013
:1032E0004FEA13650FF24016765D4FEA134506FB71
:1032F00005F7C7F1807706FB07F74FEAD737A7FB3B
:1033000003687642C8F58038A7FB06CE38BFA8F11F
:10331000010807FB08E64FF0000EA6FB028CE6FB57
:1033200003CEDCF1000CCEF1004E38BFAEF1010E41
:10333000A6FB0C584FF000074FF00005E6FB0E8788
:10334000A1FB08C6A0FB07CE16EB0E0645F1000553
:10335000E1FB076515F1E04E7EBFA4F580345FEA1E
:1033600046066D4116F1800745F100054FEA172723
:103370004FEA066647EA0567A6F1DE46B6F1805FCA
:103380004FEA15251FD9384624F0010C05EBC4710E
:10339000BCF1FE6F01EB0C1102D8F0BCBDE800815E
:1033A00024425CBF01F5801E9EEAC47F02D4F0BCBB
:1033B000BDE80081244238D4F0BCA1F1C041BDE891
:1033C000004100F007BA4FEAD22242EA43524FEAE4
:1033D000D323A7FB02864FEAD02040EA415007FBE7
:1033E00003661EEA0E0F4FEAD12105FB026658BFA5
:1033F000A6EB0056B6EB00564FEA520E4EEAC37EDD
:1034000018EB0E0E56EB530EBDD518EB02085E41BD
:103410007F1C55F10005B6E74FF480154FF000070B
:103420004FF000064FF00008ADE7F0BC4FF0000091
:1034300001F1C04101F00041BDE8008111EA0C1F1B
:103440000CEA131500D00CE013EA0C1F00F02580E5
:103450004FF00000F0BC81EA030101F00041BDE83B
:103460000081F0BCBDE8004181EA030100F0B2B97F
:10347000F0BCBDE8004170B500F05EF9097EFC3E8D
:1034800000F007B881EA03014FF0000001F00041AD
:10349000704781EA030100F09DB9F0BCBDE800412E
:1034A0004FF0000021497047FFFDFBF9F7F5F4F2FA
:1034B000F0EEEDEBE9E8E6E4E3E1E0DEDDDBDAD8CF
:1034C000D7D5D4D3D1D0CFCDCCCBCAC8C7C6C5C42D
:1034D000C2C1C0BFBEBDBCBBBAB9B8B7B6B5B4B344
:1034E000B2B1B0AFAEADACABAAA9A8A8A7A6A5A42F
:1034F000A3A3A2A1A09F9F9E9D9C9C9B9A999998F3
:103500009797969595949393929191908F8F8E8E95
:103510008D8C8C8B8B8A8989888887878685858422
:1035200084838382828181800000FF070000F87F0E
:103530004FEA41034FEA5353A3F58063D3F11E03CF
:10354000C8BFD3F1210C0CDD4FF0004242EAC1228A
:1035500042EA505232FA03FC8CEAE17CACEBE170B7
:103560007047102BC4BF0020704703F5787CBCF176
:10357000FF3F04D06FF0004282EA2100704770B52F
:1035800000F0DAF84992248000207047F2E710F04A
:10359000004248BF4042B0FA80F310FA03F10AD06B
:1035A000C3F11D0303F580634FEA415002EB035260
:1035B00002EBD12170474FF000007047B0FA80F362
:1035C00010FA03F10AD0C3F11D0303F580634FEA3B
:1035D00041504FEA035202EBD12170474FF00000F7
:1035E00070470000DFF848C170B51CEA111E1EBF0D
:1035F0001CEA13159EEA0C0F95EA0C0F00F06F8081
:1036000081EA030423EA4C134EEAD47E21EA4C11EA
:1036100041F4801143F48013AE44A1FB024CA0FBA3
:103620000365AEF17F7E361955EB0C05A1FB034C0B
:103630004CF10003A0FB021C16EB0C06654153F194
:103640000003094218BF46F0010613F4007F0BD1B6
:103650004FEA03314FEA0530340341EA155140EA9D
:1036600016506FF003020AE04FEAC3214FEAC5206B
:10367000F40241EA555140EA56506FF0020202EB63
:103680002E4201EB025585EACE710AD05FEA440C66
:1036900018BF24F0004450F1000041F1000120EA7D
:1036A000D47040F2FE7C624500D270BDA84214BFC7
:1036B0004FF080444FF04044002E08BF0024BEF17C
:1036C000806FA8BFA1F1C041BDE8704080F2828048
:1036D0004FF0000001F1C04101F0004170479EEA47
:1036E0000C0F0CEA131518BF95EA0C0F06D04FF01B
:1036F000000081EA030E0EF0004170BD00F01CF8DE
:103700008900013E00F007B800F009B84FEA430C09
:103710005FEA5C5C08D081EA030100F05BB84FEA25
:10372000410C5FEA5C5CF6D14FF000000149704744
:103730000000FF070000F87F0EF1020E2EF0030ECE
:103740005EF8046B364205D4012A43EB030515F5F8
:10375000001F12D8012841EB010C1CF5001F0CD8EA
:103760000ED14FEAD17C15F5001F0CEB4C0C0CF17F
:10377000020C08BF4CEBD37C04E04FF0080C01E0D6
:103780004FEAD37C0CEB4C0526FA05F606F007064B
:10379000B6F1040C06D20EEB860CBDE870404CF07E
:1037A000010C6047DFE80CF0090B02024FF000410A
:1037B0004FF00000A1F5002170BD19461046012808
:1037C00051EB010418BFD4F5001484BF002001F0B0
:1037D000004170BD0808A0F500114FEA31017047A3
:1037E00091EA030F10B581F000413FF5A9AC83F0D9
:1037F000004300F009B8000010B591EA030F48BF7C
:1038000083F000433FF59CAC841A71EB030C07D2A4
:1038100012198CF0004C43EB0C03001B61EB0C0104
:10382000DFF8A4E14FEA1154A4EB135C1EEA430F46
:1038300018BF9EEA445F00F0B08023EA6E03524254
:1038400021EA0451C3EB6E0338BF5B1EDCF1200E8E
:1038500025D322FA0CFE10EB0E0043FA0CFE41EBCE
:103860000E01CCF1200E03FA0EFE10EB0E0051F10A
:103870000001CCF1200E29D412FA0EF201EB045112
:10388000BDE8104058BF7047401C1CBFB2F1004F4C
:10389000704700280CBF491C20F00100704712EB54
:1038A000020E43EB030218BF4FF0010E4EEA420234
:1038B000ACF1200CDCF11E0E54D943FA0CFE10EBD7
:1038C0000E0051F1FF31CCF11E0ED5D50EF1010ED7
:1038D00012FA0EFE404141EB010101EB445C5FEA4C
:1038E0005C5C10D910EBDE7001EB045138BFBEF107
:1038F000004FBDE8104018BF704700280CBF491C9E
:1039000020F00100704730D24FEAD42C11F500119D
:1039100024F400641BD0B1FA81F20B3AA41AA41E5D
:10392000D2F12003914030FA03F31943904001EBA8
:10393000CC71002C01EB0451BDE81040A8BF7047CA
:1039400001F1C0414FF0000001F000417047B0FAB2
:1039500080F310FA03F100D110BDE41A173C4805BA
:10396000C90AE4E701EB045110BD491001EB045111
:10397000BDE810404FEA300002E04FF00001704710
:103980004A0008BF0042F8D0B2F5001F28BF7047B8
:1039900001F000414FF0000070479EEA445F07D0FD
:1039A00011EA5E0FBDE8104004BF002100207047FF
:1039B000BDE8104070B5FFF7BFFE00BF40DFF63E28
:1039C00083F00041104670470000E0FF4FF0407068
:1039D000E1EE100A704700004C3B000805060008A5
:1039E0000000000000000000800000000000000057
:1039F00000000000403B0008F9160008020000002B
:103A00000000000080000000000000000000000036
:103A1000000000000000000001020304060708097E
:103A20004C5555555555A53F7751C1166CC156BFDC
:103A30009015CB19A001FA3EAD529C804F7E92BEEC
:103A4000C4B1B4BD9EEE213ED43888BEE9FAA8BD0B
:103A500000004054FB21F93F3163621A61B4D03D4C
:103A60000000601A61B4D03D7370032E8A19A33B25
:103A70000000002E8A19A33BC14920259A837B3977
:103A800000000000000000006E83F9A22915444EDA
:103A9000D15727FCC0DD34F5999562DB4190433C5A
:103AA000AB6351FE61C5BBDE3A6E24B7E0D24D4236
:103AB000EA2E49061C92D1091CEB1DFE3EA729B136
:103AC000F53582E88444BB2E26709CE9417E5FB4C4
:103AD00039D69139F43953838B5F849C3B28F9BDE7
:103AE000FF97F81F0F9805DE8B112FEF1F6D0A5AF5
:103AF000CF7E366DB709CB27663F464F2DEA5F9ED6
:103B0000C7BA27757BF1E5EBF739073DEA92528A90
:103B1000B15FFB6B085D8D1FA6F810111111813F7D
:103B2000D561C119A0012ABF7DFEB157E31DC73E73
:103B3000EB9C2B8AE6E55ABE7CD5CF5A3AD9E53DB7
:103B40004D6F746F725461736B5F0000436F756EDD
:103B5000745461736B5F0000783B00080000002024
:103B6000B4000000C40100082C3C0008B400002090
:103B7000BC470000E0010008000000000000000059
:103B80000000000000000000000000000100000034
:103B90000000000000000000000000000000000025
:103BA0000000000000000000000000000000000015
:103BB00000000000010000001000000000000000F4
:103BC0000024F400000000000000000000000000DD
:103BD00000000000000000000000000000000000E5
:103BE00000000000000000000000000000000000D5
:103BF00000000000000000000000000000000000C5
:103C000000000000000000000000000000000000B4
:103C100000000000000000000000000000000000A4
:0C3C200000000000AAAAAAAA00000000F0
:040000050800018965
:00000001FF
